{
  "contractName": "ERC721Metadata",
  "abi": [
    {
      "inputs": [
        {
          "internalType": "string",
          "name": "named",
          "type": "string"
        },
        {
          "internalType": "string",
          "name": "symbolified",
          "type": "string"
        }
      ],
      "stateMutability": "nonpayable",
      "type": "constructor"
    },
    {
      "inputs": [
        {
          "internalType": "bytes4",
          "name": "interfaceID",
          "type": "bytes4"
        }
      ],
      "name": "supportsInterface",
      "outputs": [
        {
          "internalType": "bool",
          "name": "",
          "type": "bool"
        }
      ],
      "stateMutability": "view",
      "type": "function"
    },
    {
      "inputs": [],
      "name": "name",
      "outputs": [
        {
          "internalType": "string",
          "name": "",
          "type": "string"
        }
      ],
      "stateMutability": "view",
      "type": "function"
    },
    {
      "inputs": [],
      "name": "symbol",
      "outputs": [
        {
          "internalType": "string",
          "name": "",
          "type": "string"
        }
      ],
      "stateMutability": "view",
      "type": "function"
    }
  ],
  "bytecode": "0x60806040523480156200001157600080fd5b50604051620009ab380380620009ab8339818101604052810190620000379190620002ef565b620000687f01ffc9a7a5cef8baa21ed3c5c0d7e23accb804b619e9333b597f47a0d84076e2620000f560201b60201c565b620000bb7f13b182f4c0e5b2efbac0efe6cf6d756c8b89f4b79c5707a043ed9ea740574ee97f7feaf19471f34a12a7eaf32d5f3090aa2260ea8624dc8a138e74e0bf0f62307618620000f560201b60201c565b8160019080519060200190620000d3929190620001cd565b508060029080519060200190620000ec929190620001cd565b50505062000555565b63ffffffff60e01b817bffffffffffffffffffffffffffffffffffffffffffffffffffffffff1916141562000161576040517f08c379a0000000000000000000000000000000000000000000000000000000008152600401620001589062000389565b60405180910390fd5b6001600080837bffffffffffffffffffffffffffffffffffffffffffffffffffffffff19167bffffffffffffffffffffffffffffffffffffffffffffffffffffffff1916815260200190815260200160002060006101000a81548160ff02191690831515021790555050565b828054620001db9062000451565b90600052602060002090601f016020900481019282620001ff57600085556200024b565b82601f106200021a57805160ff19168380011785556200024b565b828001600101855582156200024b579182015b828111156200024a5782518255916020019190600101906200022d565b5b5090506200025a91906200025e565b5090565b5b80821115620002795760008160009055506001016200025f565b5090565b6000620002946200028e84620003d4565b620003ab565b905082815260208101848484011115620002ad57600080fd5b620002ba8482856200041b565b509392505050565b600082601f830112620002d457600080fd5b8151620002e68482602086016200027d565b91505092915050565b600080604083850312156200030357600080fd5b600083015167ffffffffffffffff8111156200031e57600080fd5b6200032c85828601620002c2565b925050602083015167ffffffffffffffff8111156200034a57600080fd5b6200035885828601620002c2565b9150509250929050565b6000620003716019836200040a565b91506200037e826200052c565b602082019050919050565b60006020820190508181036000830152620003a48162000362565b9050919050565b6000620003b7620003ca565b9050620003c5828262000487565b919050565b6000604051905090565b600067ffffffffffffffff821115620003f257620003f1620004ec565b5b620003fd826200051b565b9050602081019050919050565b600082825260208201905092915050565b60005b838110156200043b5780820151818401526020810190506200041e565b838111156200044b576000848401525b50505050565b600060028204905060018216806200046a57607f821691505b60208210811415620004815762000480620004bd565b5b50919050565b62000492826200051b565b810181811067ffffffffffffffff82111715620004b457620004b3620004ec565b5b80604052505050565b7f4e487b7100000000000000000000000000000000000000000000000000000000600052602260045260246000fd5b7f4e487b7100000000000000000000000000000000000000000000000000000000600052604160045260246000fd5b6000601f19601f8301169050919050565b7f496e76616c696420696e74657266616365207265717565737400000000000000600082015250565b61044680620005656000396000f3fe608060405234801561001057600080fd5b50600436106100415760003560e01c806301ffc9a71461004657806306fdde031461007657806395d89b4114610094575b600080fd5b610060600480360381019061005b9190610252565b6100b2565b60405161006d91906102c3565b60405180910390f35b61007e610119565b60405161008b91906102de565b60405180910390f35b61009c6101ab565b6040516100a991906102de565b60405180910390f35b6000806000837bffffffffffffffffffffffffffffffffffffffffffffffffffffffff19167bffffffffffffffffffffffffffffffffffffffffffffffffffffffff1916815260200190815260200160002060009054906101000a900460ff169050919050565b60606001805461012890610387565b80601f016020809104026020016040519081016040528092919081815260200182805461015490610387565b80156101a15780601f10610176576101008083540402835291602001916101a1565b820191906000526020600020905b81548152906001019060200180831161018457829003601f168201915b5050505050905090565b6060600280546101ba90610387565b80601f01602080910402602001604051908101604052809291908181526020018280546101e690610387565b80156102335780601f1061020857610100808354040283529160200191610233565b820191906000526020600020905b81548152906001019060200180831161021657829003601f168201915b5050505050905090565b60008135905061024c816103f9565b92915050565b60006020828403121561026457600080fd5b60006102728482850161023d565b91505092915050565b6102848161031c565b82525050565b600061029582610300565b61029f818561030b565b93506102af818560208601610354565b6102b8816103e8565b840191505092915050565b60006020820190506102d8600083018461027b565b92915050565b600060208201905081810360008301526102f8818461028a565b905092915050565b600081519050919050565b600082825260208201905092915050565b60008115159050919050565b60007fffffffff0000000000000000000000000000000000000000000000000000000082169050919050565b60005b83811015610372578082015181840152602081019050610357565b83811115610381576000848401525b50505050565b6000600282049050600182168061039f57607f821691505b602082108114156103b3576103b26103b9565b5b50919050565b7f4e487b7100000000000000000000000000000000000000000000000000000000600052602260045260246000fd5b6000601f19601f8301169050919050565b61040281610328565b811461040d57600080fd5b5056fea2646970667358221220c9adf5c7d7d9ad925bee327ea69e8139dd492293a17e3dfe4f2335720b52ccfb64736f6c63430008020033",
  "immutableReferences": {},
  "source": "// SPDX-License-Identifier: MIT\r\npragma solidity ^0.8.0;\r\n\r\nimport './interfaces/IERC721Metadata.sol';\r\nimport './ERC165.sol';\r\n\r\ncontract ERC721Metadata is IERC721Metadata, ERC165 {\r\n\r\n    string private _name;\r\n    string private _symbol;\r\n\r\n    constructor(string memory named, string memory symbolified) {\r\n\r\n        _registerInterface(bytes4(keccak256('name(bytes4)')^\r\n        keccak256('symbol(bytes4)')));\r\n\r\n        _name = named;\r\n        _symbol = symbolified;\r\n    }\r\n\r\n    function name() external view override returns(string memory) {\r\n        return _name;\r\n    }\r\n\r\n    function symbol() external view override returns(string memory) {\r\n    return _symbol;\r\n    }\r\n\r\n}",
  "sourcePath": "C:\\Alex\\Repo\\NFT\\nft-marketplace-solution\\src\\contracts\\ERC721Metadata.sol",
  "compiler": {
    "name": "solc",
    "version": "0.8.2+commit.661d1103.Emscripten.clang"
  },
  "schemaVersion": "3.4.16",
  "updatedAt": "2024-02-15T16:46:10.538Z",
  "devdoc": {
    "kind": "dev",
    "methods": {
      "supportsInterface(bytes4)": {
        "details": "Interface identification is specified in ERC-165. This function  uses less than 30,000 gas.",
        "params": {
          "interfaceID": "The interface identifier, as specified in ERC-165"
        },
        "returns": {
          "_0": "`true` if the contract implements `interfaceID` and  `interfaceID` is not 0xffffffff, `false` otherwise"
        }
      }
    },
    "version": 1
  },
  "userdoc": {
    "kind": "user",
    "methods": {
      "supportsInterface(bytes4)": {
        "notice": "Query if a contract implements an interface"
      }
    },
    "version": 1
  }
}