{
  "contractName": "KryptoBird",
  "abi": [
    {
      "inputs": [],
      "stateMutability": "nonpayable",
      "type": "constructor"
    },
    {
      "anonymous": false,
      "inputs": [
        {
          "indexed": true,
          "internalType": "address",
          "name": "_owner",
          "type": "address"
        },
        {
          "indexed": true,
          "internalType": "address",
          "name": "_approved",
          "type": "address"
        },
        {
          "indexed": true,
          "internalType": "uint256",
          "name": "_tokenId",
          "type": "uint256"
        }
      ],
      "name": "Approval",
      "type": "event"
    },
    {
      "anonymous": false,
      "inputs": [
        {
          "indexed": true,
          "internalType": "address",
          "name": "_from",
          "type": "address"
        },
        {
          "indexed": true,
          "internalType": "address",
          "name": "_to",
          "type": "address"
        },
        {
          "indexed": true,
          "internalType": "uint256",
          "name": "_tokenId",
          "type": "uint256"
        }
      ],
      "name": "Transfer",
      "type": "event"
    },
    {
      "inputs": [
        {
          "internalType": "address",
          "name": "_to",
          "type": "address"
        },
        {
          "internalType": "uint256",
          "name": "tokenId",
          "type": "uint256"
        }
      ],
      "name": "approve",
      "outputs": [],
      "stateMutability": "nonpayable",
      "type": "function"
    },
    {
      "inputs": [
        {
          "internalType": "address",
          "name": "_owner",
          "type": "address"
        }
      ],
      "name": "balanceOf",
      "outputs": [
        {
          "internalType": "uint256",
          "name": "",
          "type": "uint256"
        }
      ],
      "stateMutability": "view",
      "type": "function"
    },
    {
      "inputs": [
        {
          "internalType": "uint256",
          "name": "",
          "type": "uint256"
        }
      ],
      "name": "kryptoBirdz",
      "outputs": [
        {
          "internalType": "string",
          "name": "",
          "type": "string"
        }
      ],
      "stateMutability": "view",
      "type": "function"
    },
    {
      "inputs": [],
      "name": "name",
      "outputs": [
        {
          "internalType": "string",
          "name": "",
          "type": "string"
        }
      ],
      "stateMutability": "view",
      "type": "function"
    },
    {
      "inputs": [
        {
          "internalType": "uint256",
          "name": "_tokenId",
          "type": "uint256"
        }
      ],
      "name": "ownerOf",
      "outputs": [
        {
          "internalType": "address",
          "name": "",
          "type": "address"
        }
      ],
      "stateMutability": "view",
      "type": "function"
    },
    {
      "inputs": [
        {
          "internalType": "bytes4",
          "name": "interfaceID",
          "type": "bytes4"
        }
      ],
      "name": "supportsInterface",
      "outputs": [
        {
          "internalType": "bool",
          "name": "",
          "type": "bool"
        }
      ],
      "stateMutability": "view",
      "type": "function"
    },
    {
      "inputs": [],
      "name": "symbol",
      "outputs": [
        {
          "internalType": "string",
          "name": "",
          "type": "string"
        }
      ],
      "stateMutability": "view",
      "type": "function"
    },
    {
      "inputs": [
        {
          "internalType": "uint256",
          "name": "index",
          "type": "uint256"
        }
      ],
      "name": "tokenByIndex",
      "outputs": [
        {
          "internalType": "uint256",
          "name": "",
          "type": "uint256"
        }
      ],
      "stateMutability": "view",
      "type": "function"
    },
    {
      "inputs": [
        {
          "internalType": "address",
          "name": "owner",
          "type": "address"
        },
        {
          "internalType": "uint256",
          "name": "index",
          "type": "uint256"
        }
      ],
      "name": "tokenOfOwnerByIndex",
      "outputs": [
        {
          "internalType": "uint256",
          "name": "",
          "type": "uint256"
        }
      ],
      "stateMutability": "view",
      "type": "function"
    },
    {
      "inputs": [],
      "name": "totalSupply",
      "outputs": [
        {
          "internalType": "uint256",
          "name": "",
          "type": "uint256"
        }
      ],
      "stateMutability": "view",
      "type": "function"
    },
    {
      "inputs": [
        {
          "internalType": "address",
          "name": "_from",
          "type": "address"
        },
        {
          "internalType": "address",
          "name": "_to",
          "type": "address"
        },
        {
          "internalType": "uint256",
          "name": "_tokenId",
          "type": "uint256"
        }
      ],
      "name": "transferFrom",
      "outputs": [],
      "stateMutability": "nonpayable",
      "type": "function"
    },
    {
      "inputs": [
        {
          "internalType": "string",
          "name": "_kryptoBird",
          "type": "string"
        }
      ],
      "name": "mint",
      "outputs": [],
      "stateMutability": "nonpayable",
      "type": "function"
    }
  ],
  "bytecode": "0x60806040523480156200001157600080fd5b506040518060400160405280600a81526020017f4b727970746f42697264000000000000000000000000000000000000000000008152506040518060400160405280600681526020017f4b424952445a00000000000000000000000000000000000000000000000000008152508181620000b17f01ffc9a7a5cef8baa21ed3c5c0d7e23accb804b619e9333b597f47a0d84076e26200022a60201b60201c565b620001047f13b182f4c0e5b2efbac0efe6cf6d756c8b89f4b79c5707a043ed9ea740574ee97f7feaf19471f34a12a7eaf32d5f3090aa2260ea8624dc8a138e74e0bf0f623076186200022a60201b60201c565b81600190805190602001906200011c92919062000302565b5080600290805190602001906200013592919062000302565b505050620001ad7f22c82707ba960a14c7592ffb6b8cfaa073fed0048a84cc7fa41f6b5bd8e7f2e47f3a6eb71757dfc6e784c1459d26270140c2c147d95ca985c80026fc5301c3eca17f8a7e378434598edc36d108689a030cbc9d7d465de4f74c71bae1028eed6a881b18186200022a60201b60201c565b620002227f8230223f691b981717299fae9549350a0d894555723531f02108b1f522c1a7977f6da5e1284143cdd2d15038a59bde3be031250f00291d64494c12d967b3a4e0c37fc53637662700e6c65104059db8bba34439e0c32483ab7c34e3ccae52c739549518186200022a60201b60201c565b50506200049a565b63ffffffff60e01b817bffffffffffffffffffffffffffffffffffffffffffffffffffffffff1916141562000296576040517f08c379a00000000000000000000000000000000000000000000000000000000081526004016200028d90620003d9565b60405180910390fd5b6001600080837bffffffffffffffffffffffffffffffffffffffffffffffffffffffff19167bffffffffffffffffffffffffffffffffffffffffffffffffffffffff1916815260200190815260200160002060006101000a81548160ff02191690831515021790555050565b82805462000310906200040c565b90600052602060002090601f01602090048101928262000334576000855562000380565b82601f106200034f57805160ff191683800117855562000380565b8280016001018555821562000380579182015b828111156200037f57825182559160200191906001019062000362565b5b5090506200038f919062000393565b5090565b5b80821115620003ae57600081600090555060010162000394565b5090565b6000620003c1601983620003fb565b9150620003ce8262000471565b602082019050919050565b60006020820190508181036000830152620003f481620003b2565b9050919050565b600082825260208201905092915050565b600060028204905060018216806200042557607f821691505b602082108114156200043c576200043b62000442565b5b50919050565b7f4e487b7100000000000000000000000000000000000000000000000000000000600052602260045260246000fd5b7f496e76616c696420696e74657266616365207265717565737400000000000000600082015250565b611e2680620004aa6000396000f3fe608060405234801561001057600080fd5b50600436106100b45760003560e01c80634f6ccce7116100715780634f6ccce71461018d5780636352211e146101bd57806370a08231146101ed57806393ab6e561461021d57806395d89b411461024d578063d85d3d271461026b576100b4565b806301ffc9a7146100b957806306fdde03146100e9578063095ea7b31461010757806318160ddd1461012357806323b872dd146101415780632f745c591461015d575b600080fd5b6100d360048036038101906100ce919061131f565b610287565b6040516100e0919061161f565b60405180910390f35b6100f16102ee565b6040516100fe919061163a565b60405180910390f35b610121600480360381019061011c91906112e3565b610380565b005b61012b61051c565b60405161013891906117dc565b60405180910390f35b61015b60048036038101906101569190611294565b610529565b005b610177600480360381019061017291906112e3565b61054c565b60405161018491906117dc565b60405180910390f35b6101a760048036038101906101a29190611389565b610622565b6040516101b491906117dc565b60405180910390f35b6101d760048036038101906101d29190611389565b6106b9565b6040516101e49190611604565b60405180910390f35b6102076004803603810190610202919061126b565b61076b565b60405161021491906117dc565b60405180910390f35b61023760048036038101906102329190611389565b61082a565b604051610244919061163a565b60405180910390f35b6102556108d6565b604051610262919061163a565b60405180910390f35b61028560048036038101906102809190611348565b610968565b005b6000806000837bffffffffffffffffffffffffffffffffffffffffffffffffffffffff19167bffffffffffffffffffffffffffffffffffffffffffffffffffffffff1916815260200190815260200160002060009054906101000a900460ff169050919050565b6060600180546102fd906119b4565b80601f0160208091040260200160405190810160405280929190818152602001828054610329906119b4565b80156103765780601f1061034b57610100808354040283529160200191610376565b820191906000526020600020905b81548152906001019060200180831161035957829003601f168201915b5050505050905090565b600061038b826106b9565b90508073ffffffffffffffffffffffffffffffffffffffff168373ffffffffffffffffffffffffffffffffffffffff1614156103fc576040517f08c379a00000000000000000000000000000000000000000000000000000000081526004016103f39061165c565b60405180910390fd5b8073ffffffffffffffffffffffffffffffffffffffff163373ffffffffffffffffffffffffffffffffffffffff161461046a576040517f08c379a00000000000000000000000000000000000000000000000000000000081526004016104619061175c565b60405180910390fd5b826005600084815260200190815260200160002060006101000a81548173ffffffffffffffffffffffffffffffffffffffff021916908373ffffffffffffffffffffffffffffffffffffffff160217905550818373ffffffffffffffffffffffffffffffffffffffff168273ffffffffffffffffffffffffffffffffffffffff167f8c5be1e5ebec7d5bd14f71427d1e84f3dd0314c0f7b2291e5b200ac8c7c3b92560405160405180910390a4505050565b6000600680549050905090565b6105333382610a6b565b61053c57600080fd5b610547838383610afa565b505050565b60006105578361076b565b8210610598576040517f08c379a000000000000000000000000000000000000000000000000000000000815260040161058f906116dc565b60405180910390fd5b600860008473ffffffffffffffffffffffffffffffffffffffff1673ffffffffffffffffffffffffffffffffffffffff168152602001908152602001600020828154811061060f577f4e487b7100000000000000000000000000000000000000000000000000000000600052603260045260246000fd5b9060005260206000200154905092915050565b600061062c61051c565b821061066d576040517f08c379a0000000000000000000000000000000000000000000000000000000008152600401610664906116bc565b60405180910390fd5b600682815481106106a7577f4e487b7100000000000000000000000000000000000000000000000000000000600052603260045260246000fd5b90600052602060002001549050919050565b6000806003600084815260200190815260200160002060009054906101000a900473ffffffffffffffffffffffffffffffffffffffff169050600073ffffffffffffffffffffffffffffffffffffffff168173ffffffffffffffffffffffffffffffffffffffff161415610762576040517f08c379a00000000000000000000000000000000000000000000000000000000081526004016107599061167c565b60405180910390fd5b80915050919050565b60008073ffffffffffffffffffffffffffffffffffffffff168273ffffffffffffffffffffffffffffffffffffffff1614156107dc576040517f08c379a00000000000000000000000000000000000000000000000000000000081526004016107d39061167c565b60405180910390fd5b610823600460008473ffffffffffffffffffffffffffffffffffffffff1673ffffffffffffffffffffffffffffffffffffffff168152602001908152602001600020610d20565b9050919050565b600a818154811061083a57600080fd5b906000526020600020016000915090508054610855906119b4565b80601f0160208091040260200160405190810160405280929190818152602001828054610881906119b4565b80156108ce5780601f106108a3576101008083540402835291602001916108ce565b820191906000526020600020905b8154815290600101906020018083116108b157829003601f168201915b505050505081565b6060600280546108e5906119b4565b80601f0160208091040260200160405190810160405280929190818152602001828054610911906119b4565b801561095e5780601f106109335761010080835404028352916020019161095e565b820191906000526020600020905b81548152906001019060200180831161094157829003601f168201915b5050505050905090565b600b8160405161097891906115ed565b908152602001604051809103902060009054906101000a900460ff16156109d4576040517f08c379a00000000000000000000000000000000000000000000000000000000081526004016109cb9061171c565b60405180910390fd5b600a81908060018154018082558091505060019003906000526020600020016000909190919091509080519060200190610a0f929190611121565b5060006001600a80549050610a2491906118ca565b9050610a303382610d2e565b6001600b83604051610a4291906115ed565b908152602001604051809103902060006101000a81548160ff0219169083151502179055505050565b6000610a7682610d4f565b610ab5576040517f08c379a0000000000000000000000000000000000000000000000000000000008152600401610aac906117bc565b60405180910390fd5b6000610ac0836106b9565b90508073ffffffffffffffffffffffffffffffffffffffff168473ffffffffffffffffffffffffffffffffffffffff161491505092915050565b600073ffffffffffffffffffffffffffffffffffffffff168273ffffffffffffffffffffffffffffffffffffffff161415610b6a576040517f08c379a0000000000000000000000000000000000000000000000000000000008152600401610b61906116fc565b60405180910390fd5b8273ffffffffffffffffffffffffffffffffffffffff16610b8a826106b9565b73ffffffffffffffffffffffffffffffffffffffff1614610be0576040517f08c379a0000000000000000000000000000000000000000000000000000000008152600401610bd79061179c565b60405180910390fd5b610c27600460008573ffffffffffffffffffffffffffffffffffffffff1673ffffffffffffffffffffffffffffffffffffffff168152602001908152602001600020610dc1565b610c6e600460008473ffffffffffffffffffffffffffffffffffffffff1673ffffffffffffffffffffffffffffffffffffffff168152602001908152602001600020610de4565b816003600083815260200190815260200160002060006101000a81548173ffffffffffffffffffffffffffffffffffffffff021916908373ffffffffffffffffffffffffffffffffffffffff160217905550808273ffffffffffffffffffffffffffffffffffffffff168473ffffffffffffffffffffffffffffffffffffffff167fddf252ad1be2c89b69c2b068fc378daa952ba7f163c4a11628f55a4df523b3ef60405160405180910390a4505050565b600081600001549050919050565b610d388282610e03565b610d4181610fb5565b610d4b8282610ffe565b5050565b6000806003600084815260200190815260200160002060009054906101000a900473ffffffffffffffffffffffffffffffffffffffff169050600073ffffffffffffffffffffffffffffffffffffffff168173ffffffffffffffffffffffffffffffffffffffff161415915050919050565b610dd9600182600001546110c290919063ffffffff16565b816000018190555050565b6001816000016000828254610df99190611874565b9250508190555050565b600073ffffffffffffffffffffffffffffffffffffffff168273ffffffffffffffffffffffffffffffffffffffff161415610e73576040517f08c379a0000000000000000000000000000000000000000000000000000000008152600401610e6a9061177c565b60405180910390fd5b610e7c81610d4f565b15610ebc576040517f08c379a0000000000000000000000000000000000000000000000000000000008152600401610eb39061169c565b60405180910390fd5b816003600083815260200190815260200160002060006101000a81548173ffffffffffffffffffffffffffffffffffffffff021916908373ffffffffffffffffffffffffffffffffffffffff160217905550610f55600460008473ffffffffffffffffffffffffffffffffffffffff1673ffffffffffffffffffffffffffffffffffffffff168152602001908152602001600020610de4565b808273ffffffffffffffffffffffffffffffffffffffff16600073ffffffffffffffffffffffffffffffffffffffff167fddf252ad1be2c89b69c2b068fc378daa952ba7f163c4a11628f55a4df523b3ef60405160405180910390a45050565b6006805490506007600083815260200190815260200160002081905550600681908060018154018082558091505060019003906000526020600020016000909190919091505550565b600860008373ffffffffffffffffffffffffffffffffffffffff1673ffffffffffffffffffffffffffffffffffffffff168152602001908152602001600020805490506009600083815260200190815260200160002081905550600860008373ffffffffffffffffffffffffffffffffffffffff1673ffffffffffffffffffffffffffffffffffffffff1681526020019081526020016000208190806001815401808255809150506001900390600052602060002001600090919091909150555050565b600082821115611107576040517f08c379a00000000000000000000000000000000000000000000000000000000081526004016110fe9061173c565b60405180910390fd5b6000828461111591906118ca565b90508091505092915050565b82805461112d906119b4565b90600052602060002090601f01602090048101928261114f5760008555611196565b82601f1061116857805160ff1916838001178555611196565b82800160010185558215611196579182015b8281111561119557825182559160200191906001019061117a565b5b5090506111a391906111a7565b5090565b5b808211156111c05760008160009055506001016111a8565b5090565b60006111d76111d28461181c565b6117f7565b9050828152602081018484840111156111ef57600080fd5b6111fa848285611972565b509392505050565b60008135905061121181611dab565b92915050565b60008135905061122681611dc2565b92915050565b600082601f83011261123d57600080fd5b813561124d8482602086016111c4565b91505092915050565b60008135905061126581611dd9565b92915050565b60006020828403121561127d57600080fd5b600061128b84828501611202565b91505092915050565b6000806000606084860312156112a957600080fd5b60006112b786828701611202565b93505060206112c886828701611202565b92505060406112d986828701611256565b9150509250925092565b600080604083850312156112f657600080fd5b600061130485828601611202565b925050602061131585828601611256565b9150509250929050565b60006020828403121561133157600080fd5b600061133f84828501611217565b91505092915050565b60006020828403121561135a57600080fd5b600082013567ffffffffffffffff81111561137457600080fd5b6113808482850161122c565b91505092915050565b60006020828403121561139b57600080fd5b60006113a984828501611256565b91505092915050565b6113bb816118fe565b82525050565b6113ca81611910565b82525050565b60006113db8261184d565b6113e58185611858565b93506113f5818560208601611981565b6113fe81611aa4565b840191505092915050565b60006114148261184d565b61141e8185611869565b935061142e818560208601611981565b80840191505092915050565b6000611447602183611858565b915061145282611ab5565b604082019050919050565b600061146a602283611858565b915061147582611b04565b604082019050919050565b600061148d601c83611858565b915061149882611b53565b602082019050919050565b60006114b0601e83611858565b91506114bb82611b7c565b602082019050919050565b60006114d3601d83611858565b91506114de82611ba5565b602082019050919050565b60006114f6602b83611858565b915061150182611bce565b604082019050919050565b6000611519602183611858565b915061152482611c1d565b604082019050919050565b600061153c601e83611858565b915061154782611c6c565b602082019050919050565b600061155f602c83611858565b915061156a82611c95565b604082019050919050565b6000611582602283611858565b915061158d82611ce4565b604082019050919050565b60006115a5603483611858565b91506115b082611d33565b604082019050919050565b60006115c8601483611858565b91506115d382611d82565b602082019050919050565b6115e781611968565b82525050565b60006115f98284611409565b915081905092915050565b600060208201905061161960008301846113b2565b92915050565b600060208201905061163460008301846113c1565b92915050565b6000602082019050818103600083015261165481846113d0565b905092915050565b600060208201905081810360008301526116758161143a565b9050919050565b600060208201905081810360008301526116958161145d565b9050919050565b600060208201905081810360008301526116b581611480565b9050919050565b600060208201905081810360008301526116d5816114a3565b9050919050565b600060208201905081810360008301526116f5816114c6565b9050919050565b60006020820190508181036000830152611715816114e9565b9050919050565b600060208201905081810360008301526117358161150c565b9050919050565b600060208201905081810360008301526117558161152f565b9050919050565b6000602082019050818103600083015261177581611552565b9050919050565b6000602082019050818103600083015261179581611575565b9050919050565b600060208201905081810360008301526117b581611598565b9050919050565b600060208201905081810360008301526117d5816115bb565b9050919050565b60006020820190506117f160008301846115de565b92915050565b6000611801611812565b905061180d82826119e6565b919050565b6000604051905090565b600067ffffffffffffffff82111561183757611836611a75565b5b61184082611aa4565b9050602081019050919050565b600081519050919050565b600082825260208201905092915050565b600081905092915050565b600061187f82611968565b915061188a83611968565b9250827fffffffffffffffffffffffffffffffffffffffffffffffffffffffffffffffff038211156118bf576118be611a17565b5b828201905092915050565b60006118d582611968565b91506118e083611968565b9250828210156118f3576118f2611a17565b5b828203905092915050565b600061190982611948565b9050919050565b60008115159050919050565b60007fffffffff0000000000000000000000000000000000000000000000000000000082169050919050565b600073ffffffffffffffffffffffffffffffffffffffff82169050919050565b6000819050919050565b82818337600083830152505050565b60005b8381101561199f578082015181840152602081019050611984565b838111156119ae576000848401525b50505050565b600060028204905060018216806119cc57607f821691505b602082108114156119e0576119df611a46565b5b50919050565b6119ef82611aa4565b810181811067ffffffffffffffff82111715611a0e57611a0d611a75565b5b80604052505050565b7f4e487b7100000000000000000000000000000000000000000000000000000000600052601160045260246000fd5b7f4e487b7100000000000000000000000000000000000000000000000000000000600052602260045260246000fd5b7f4e487b7100000000000000000000000000000000000000000000000000000000600052604160045260246000fd5b6000601f19601f8301169050919050565b7f4572726f72202d20617070726f76616c20746f2063757272656e74206f776e6560008201527f7200000000000000000000000000000000000000000000000000000000000000602082015250565b7f6f776e657220717565727920666f72206e6f6e2d6578697374656e7420746f6b60008201527f656e000000000000000000000000000000000000000000000000000000000000602082015250565b7f4552433732313a20746f6b656e20616c7265616479206d696e74656400000000600082015250565b7f676c6f62616c20696e646578206973206f7574206f6620626f756e6473210000600082015250565b7f6f776e657220696e646578206973206f7574206f6620626f756e647321000000600082015250565b7f4572726f72202d20455243373231205472616e7366657220746f20746865207a60008201527f65726f2061646472657373000000000000000000000000000000000000000000602082015250565b7f4572726f72202d206b727970746f4269726420616c726561647920657869737460008201527f7300000000000000000000000000000000000000000000000000000000000000602082015250565b7f536166654d6174683a207375627472616374696f6e206f766572666c6f770000600082015250565b7f43757272656e742063616c6c6572206973206e6f7420746865206f776e65722060008201527f6f662074686520746f6b656e0000000000000000000000000000000000000000602082015250565b7f4552433732313a206d696e74696e6720746f20746865207a65726f206164647260008201527f6573000000000000000000000000000000000000000000000000000000000000602082015250565b7f547279696e6720746f207472616e73666572206120746f6b656e20746865206160008201527f64647265737320646f6573206e6f74206f776e21000000000000000000000000602082015250565b7f746f6b656e20646f6573206e6f74206578697374000000000000000000000000600082015250565b611db4816118fe565b8114611dbf57600080fd5b50565b611dcb8161191c565b8114611dd657600080fd5b50565b611de281611968565b8114611ded57600080fd5b5056fea26469706673582212202dc216dd3242dfd4a04df05a1469593ec154f7f3c1625d506f79bbf037e35b1b64736f6c63430008020033",
  "immutableReferences": {},
  "source": "// SPDX-License-Identifier: MIT\r\npragma solidity ^0.8.0;\r\n\r\nimport './ERC721Connector.sol';\r\n\r\ncontract KryptoBird is ERC721Connector {\r\n\r\n    // array to store our nfts\r\n    string [] public kryptoBirdz;\r\n\r\n    mapping(string => bool) _kryptoBirdzExists;\r\n\r\n    function mint(string memory _kryptoBird) public {\r\n\r\n        require(!_kryptoBirdzExists[_kryptoBird],\r\n        'Error - kryptoBird already exists');\r\n        // this is deprecated - uint _id = KryptoBirdz.push(_kryptoBird);\r\n        kryptoBirdz.push(_kryptoBird);\r\n        uint _id = kryptoBirdz.length - 1;\r\n\r\n        // .push no longer returns the length but a ref to the added element\r\n        _mint(msg.sender, _id);\r\n\r\n        _kryptoBirdzExists[_kryptoBird] = true;\r\n\r\n    }\r\n\r\n    constructor() ERC721Connector('KryptoBird','KBIRDZ')\r\n {}\r\n\r\n}\r\n\r\n\r\n",
  "sourcePath": "C:\\Alex\\Repo\\NFT\\nft-marketplace-solution\\src\\contracts\\KryptoBirdz.sol",
  "compiler": {
    "name": "solc",
    "version": "0.8.2+commit.661d1103.Emscripten.clang"
  },
  "schemaVersion": "3.4.16",
  "updatedAt": "2024-02-15T15:06:48.887Z",
  "devdoc": {
    "kind": "dev",
    "methods": {
      "ownerOf(uint256)": {
        "details": "NFTs assigned to zero address are considered invalid, and queries  about them do throw.",
        "params": {
          "_tokenId": "The identifier for an NFT"
        },
        "returns": {
          "_0": "The address of the owner of the NFT"
        }
      },
      "supportsInterface(bytes4)": {
        "details": "Interface identification is specified in ERC-165. This function  uses less than 30,000 gas.",
        "params": {
          "interfaceID": "The interface identifier, as specified in ERC-165"
        },
        "returns": {
          "_0": "`true` if the contract implements `interfaceID` and  `interfaceID` is not 0xffffffff, `false` otherwise"
        }
      }
    },
    "version": 1
  },
  "userdoc": {
    "kind": "user",
    "methods": {
      "ownerOf(uint256)": {
        "notice": "Find the owner of an NFT"
      },
      "supportsInterface(bytes4)": {
        "notice": "Query if a contract implements an interface"
      }
    },
    "version": 1
  }
}